:020000040800F2
:10000000D004002039010008471000081D0700082F
:10001000451000085D0300082116000800000000DC
:1000200000000000000000000000000005150008AE
:10003000550500080000000029110008B51500084A
:10004000530100085301000853010008211400085F
:100050005301000853010008690500085301000816
:10006000530100085301000853010008CD030008A4
:100070005301000853010008530100085301000810
:100080005301000853010008530100085301000800
:1000900053010008530100085301000853010008F0
:1000A00053010008530100085301000853010008E0
:1000B00053010008530100085301000853010008D0
:1000C00053010008530100085301000853010008C0
:1000D00053010008530100085301000853010008B0
:1000E00053010008530100085301000853010008A0
:1000F00053010008000000005301000853010008EC
:100100000000000000000000530100085301000837
:10011000530100085301000853010008530100086F
:1001200053010008DFF80CD000F02EF8004800471B
:10013000111B0008D00400200648804706480047ED
:10014000FEE7FEE7FEE7FEE7FEE7FEE7FEE7FEE787
:10015000FEE7FEE7B91500082501000830B50B469B
:10016000014600202022012409E021FA02F59D42E7
:1001700005D303FA02F5491B04FA02F52844151EBB
:10018000A2F10102F1DC30BD064C074D06E0E0684B
:1001900040F0010394E8070098471034AC42F6D3CE
:1001A000FFF7C4FFD41D0008F41D00080029816872
:1001B00002D041F0010101E021F0010181607047AE
:1001C00003490A68006822F440321043086070470F
:1001D000042701400029816802D041F4807101E0C8
:1001E00021F48071816070470246002012680A4243
:1001F00000D001207047000030B542680F4B0C79E9
:100200001A400B6842EA04221343436082680C4B95
:100210004D791A40D1E9034323438C6844EA4504ED
:10022000234313438360026B097D22F0F872491E59
:10023000C9B242EA0151016330BD0000FFFEFFFC7C
:10024000FDF7FFC070B507241D290AD9C56DA1F1BE
:100250001E0606EB4606B440A543B3401D43C565E4
:1002600021E013290AD9C568A1F1140606EB460658
:10027000B440A543B3401D43C56014E009290AD921
:100280000569A1F10A0606EB4606B440A543B34052
:100290001D43056107E0456901EB4106B440A543F4
:1002A000B3401D4345611F23072A09D2046C521E27
:1002B00002EB820293409C4391400C43046470BD66
:1002C0000D2A09D2C46BD21F02EB820293409C43D9
:1002D00091400C43C46370BD132A09D2846B0D3A5C
:1002E00002EB820293409C4391400C43846370BDB7
:1002F000192A09D2446B133A02EB820293409C43C1
:1003000091400C43446370BD046B193A02EB8202C6
:1003100093409C4391400C43046370BD816841F05D
:1003200080418160704700210160017141714FF08F
:100330004072C0E90212016101210175704700009D
:1003400005490028086802D040F4000001E020F4CC
:10035000000008607047000004270140FEE770B508
:1003600005464FF400460C46304600F05DF904287F
:1003700005D12C603046BDE8704000F055B970BD25
:1003800005480068C00705D00348044908300160EB
:100390000349016070470000043C0240EFCDAB8987
:1003A00005040302044A0029516801D0014300E01A
:1003B0008143516070470000002004E0024800685B
:1003C000C0F30B0070470000002004E010B50220CD
:1003D00000F004F8BDE8104001F090BCC10002D468
:1003E0000249486070470249086070470060024057
:1003F000046402400029016802D041F0010102E0DA
:100400004FF6FE72114001607047000001684FF620
:10041000FE72114001600021016041608160C16095
:100420003149314A0839904203D1486840F00F0001
:1004300006E02D4A1432904204D1486840F0F000A2
:1004400048607047284A2832904203D1486840F4F7
:100450007060F5E7244A3C32904203D1486840F48A
:100460007040EDE7204A5032904203D1486840F492
:100470007020E5E71C4A6432904203D1486840F49A
:100480007000DDE7184A7832904203D1486840F0A6
:100490007060D5E7154A111F904203D1086840F0FB
:1004A0000F0006E0114A1432904204D1086840F06F
:1004B000F000086070470D4A2832904203D1086866
:1004C00040F47060F5E7094A3C32904203D1086875
:1004D00040F47040EDE7054A50329042EAD1086896
:1004E00040F47020E5E70000086002400864024024
:1004F000002A026801D00A4300E08A430260704784
:1005000030B5036847F6F07293430C6A8A68224359
:10051000D1E904452C4322438C692243CC69224310
:100520004C6A22438C6A22431A430260CA684260C2
:100530000A6882604968C16030BD00210160416085
:100540008160C160016141618161C161016241629B
:1005500081627047704700000249886188690028FD
:10056000FCD170471C00002010B501F0CDFBBDE8A8
:1005700010400120AFF3008001490860704700007F
:100580001404014030B51A498379026853B30B68EB
:1005900093430B600A1D13680468A3431360027938
:1005A0000A441368046823431360114A083213682D
:1005B0000468A3431360131D1C680568AC431C60EA
:1005C0004479102C05D021440A68006802430A606F
:1005D00030BD116804682143116019680068014347
:1005E000196030BD0079084401689143016030BD55
:1005F000000401400149086070470000183C0240B7
:10060000084904200A68D20701D0012070470A680F
:10061000D20501D502207047096811F4F05FFAD0C5
:1006200003207047183C024000B50346FFF7E8FF7F
:1006300003E000BFFFF7E4FF5B1E012803D0002B9F
:1006400000D1052000BD002BF4D1FAE7F0B500235E
:10065000012403270D6804FA03F21540954240D1A6
:10066000D0F800C05E0007FA06F52CEA050CC0F8C9
:1006700000C091F804C0D0F800E00CFA06FC4CEA87
:100680000E0CC0F800C091F804C0BCF1010F02D0FC
:10069000BCF1020F1DD1D0F808C02CEA050CC0F83F
:1006A00008C091F805C0D0F808E00CFA06FC4CEA46
:1006B0000E0CC0F808C0B0F804C02CEA020CA0F878
:1006C00004C0B0F804C08A799A404CEA020CA0F841
:1006D00004C0C268AA43C260CA79C568B2402A434E
:1006E000C2605B1C102BB5D3F0BD4B07DB0E9A40EC
:1006F000C90810B500EB8100016A0F249C40A1439A
:100700000162016A1143016210BD4FF6FF71016081
:100710000021017141718171C1717047FEE70000D4
:1007200030B585B001F090F80121032000F0FEFC07
:1007300000258DF804508DF80750032001248DF812
:100740000500009469461C48FFF780FF0021084619
:1007500000F0DAFE8DF80C5008208DF80D000294A0
:100760008DF80E4002A8FFF70DFF06208DF810004F
:100770000F208DF811008DF812008DF8134004A899
:1007800000F062FC8DF80440C0208DF80650009007
:100790008DF807508DF8054069460848FFF756FF69
:1007A000064880211A3001804021018000213F202D
:1007B00000F0BCFC05B030BD000002400004024067
:1007C000044A136823F4783313601368084303431F
:1007D000136070470424004001490860704700001E
:1007E0000080044204490A6822F4E0520A600A6860
:1007F00002430A60704700000424004070B500788E
:10080000002435286CD018DC302869D00CDC2A286C
:100810004CD004DC202835D0252822D15AE02D28C0
:1008200050D02F281DD150E0312859D0322857D030
:10083000332855D0342814D152E06D283CD008DC40
:1008400036284DD037284BD0382849D0392808D100
:1008500046E06E2833D0B02839D0B52829D0FF28FB
:100860003BD0A0F14106224D1A2E03D205EB4004E5
:1008700034F8824CA0F161061A2E03D205EB400039
:1008800030F8C24C09B144F002040AB144F020042B
:100890000C21002024FA01F202F00F021A54091F61
:1008A000401CC0B2C9B20428F4D370BD4AF2DD04C2
:1008B000E8E746F28404E5E74BF21024E2E742F26F
:1008C0001024DFE74FF42044DCE7C024DAE74FF4DC
:1008D0006C44D7E74FF43344D4E74FF6DD74D1E7E7
:1008E000034C343404EB400030F8604CCAE700009D
:1008F0008C1D000804490A6822F460720A600A68C4
:1009000002430A60704700000424004010B5042030
:1009100000F032FB0028FAD1054A014642F82010C7
:10092000401C0F28FAD9BDE8104000F061BB000060
:10093000142400407CB501213F2000F0F7FB6846FD
:10094000FFF7E3FE48F20E70564D022400908DF83A
:10095000044069462846FFF779FE0B22012128460C
:10096000FFF7C3FE0B2202212846FFF7BEFE0B2233
:1009700003212846FFF7B9FE0B2208212846FFF77E
:10098000B4FE0B2209212846FFF7AFFE0B220A21F5
:100990002846FFF7AAFE0B220F212846FFF7A5FEE7
:1009A0004FF63870404D00908DF804406946284657
:1009B000FFF74CFE0B2203212846FFF796FE0B2281
:1009C00004212846FFF791FE0B2205212846FFF758
:1009D0008CFE0B2208212846FFF787FE0B220921F7
:1009E0002846FFF782FE0B220A212846FFF77DFEEC
:1009F0000B2211462846FFF778FE0B220C212846D1
:100A0000FFF773FE0B220D212846FFF76EFE0B2227
:100A10000E212846FFF769FE0B220F212846FFF71B
:100A200064FE8DF8044040F6CF70204C009069467B
:100A30002046FFF70BFE0B2200212046FFF755FE54
:100A40000B2201212046FFF750FE0B2202212046F7
:100A5000FFF74BFE0B2203212046FFF746FE0B2239
:100A600006212046FFF741FE0B2207212046FFF713
:100A70003CFE0B2208212046FFF737FE0B220921FE
:100A80002046FFF732FE0B220A212046FFF72DFEFB
:100A90000B2211462046FFF728FE00213F2000F0E0
:100AA00045FB7CBD000002400004024000080240FB
:100AB00070B505460124042000F05EFA0028FAD142
:100AC00008E0002223461146284600F0A3F86D1CDA
:100AD000641CE4B2287808B1082CF2D3BDE8704059
:100AE00000F086BA00B585B000204FF47011CDE952
:100AF00000010C2102914021CDE90310684600F06D
:100B000045FA012000F062FA4FF48050FFF76AFEC8
:100B10000020FFF7EFFE402000F05EFA00F06EFAD2
:100B20000120FFF759FE012000F026FA0028FAD034
:100B3000102000F021FA0028FAD04FF48041002064
:100B4000FFF73EFEFFF7E2FE05B000BD2DE9FC47D2
:100B500088460021914600910191002855D0014618
:100B6000002502E06D1CEDB2491C0A78002AF9D17B
:100B70000446FFF79DFF4846FFF7EEFC002742E0E2
:100B800000203CE0461CB6FBF5F105FB1161615C01
:100B90008DF80010811CB1FBF5F205FB1211615CB0
:100BA0008DF80110C11CB1FBF5F205FB1211615C5F
:100BB0008DF80210011DB1FBF5F205FB1211615C0D
:100BC0008DF80310411DB1FBF5F205FB1211801DDC
:100BD000615C8DF80410B0FBF5F105FB1100205CA1
:100BE0008DF80500FFF792FE6846FFF761FF0848A1
:100BF0000078002809D14846FFF7AEFCF0B2A842C1
:100C0000C0D37F1CFFB24745BAD3BDE8FC870000C4
:100C100019000020F8B51C466B46FFF7EFFDD248DF
:100C2000D149D14AD04D083010311832072C7DD22D
:100C3000DFE804F07C043B89CAFDFC002C68CB4B48
:100C40001C402C6004681C4004600C681C400C6054
:100C500014681C4014609DF8003003F0030403F096
:100C60000C0344EA83632C6823432B609DF8013016
:100C700003F0030403F00C0344EA83630468234392
:100C800003609DF8020000F0030300F00C0043EA4B
:100C900080600B68184308609DF8030000F00301B2
:100CA00000F00C0041EA80608AE02C68B04B1C40E8
:100CB0002C6004681C4004600C681C400C601468C4
:100CC0001C4014602C689DF8003003F00C0644EAC8
:100CD000066403F00206B60103F0010346EA83034B
:100CE0001C432C6004689DF8013003F00C0544EAB5
:100CF000056403F00205AD0103F0010345EA830337
:100D00001C4304600B689DF8020000F00C0443EAE9
:100D1000046300F00204A40100F0010044EA800032
:100D200003430B6011689DF8030000E018E100F038
:100D30000C0341EA036100F002039B0100F0010093
:100D400043EA80000AE12B6823F003232B60036849
:100D500023F0032303600B6823F003230B60136865
:100D600023F0032313609DF8003003F00C04A40566
:100D700003F0030344EA03232C6823432B609DF80C
:100D8000013003F00C04A40503F0030344EA032339
:100D90000468234303609DF8020000F00C039B05E8
:100DA00000F0030043EA00200B68184308609DF838
:100DB000030000F00C01890500F0030041EA002067
:100DC000116808431060CBE02C686A4B1C402C6013
:100DD00004681C4004600C681C400C6014681C40D3
:100DE00014609DF8003003F00C04A40403F0030326
:100DF00044EA83232C6823432B609DF8013003F0E1
:100E00000C04A40403F0030344EA8323046823438B
:100E100003609DF8020000F00C039B0400F0030047
:100E200043EA80200B681843086001E048E009E0CD
:100E30009DF8030000F00C01890400F0030041EA72
:100E40008020BDE72B6823F443232B60036823F441
:100E5000432303600B6823F441230B60136823F4DE
:100E6000412313609DF8003003F00C04240403F0C8
:100E7000030344EA03332C6823432B609DF80130BD
:100E800003F00C04240403F0030344EA033304686E
:100E9000234303609DF8020000F00C031B0400F0E4
:100EA000010043EA00300B68184308609DF8030016
:100EB00000F00C01090400F0010041EA00307FE776
:100EC0002B6823F470332B60036823F470330360C2
:100ED0000B6823F470330B60136823F470331360D2
:100EE0002C689DF8003003F0040644EAC63403F091
:100EF0000806760303F0030346EA83331C432C60A1
:100F000004689DF8013003F0040544EAC53403F099
:100F100008056D0303F0030345EA83331C430460B3
:100F20000B689DF8020000F0040443EAC43300F0AB
:100F30000804640300F0010044EA803003430B60BE
:100F400011689DF8030000F0040341EAC33100F08A
:100F500008035B0300F0010043EA803001431160A5
:100F600000F054F8F8BD000014240040FCFFFFCF4F
:100F700003FFFFF3FFF3CFFF034A0146002012688F
:100F80000A4200D0012070470824004002460E4863
:100F900000B5016821F07F710160D2E900131943A7
:100FA00003681943016000F029F80748001F016831
:100FB00021F07E010160016893681943D2E9033290
:100FC00013431943016000BD042400400149C86176
:100FD000704700000080044204490A6822F0700251
:100FE0000A600A6802430A60704700000424004057
:100FF00001490120086070470881044202480168E5
:101000008906FCD570470000082400400B4810B545
:10101000016821F420410160084908310A6822F47E
:1010200020420A600368064A147843EA04330360E6
:101030000868527840EA0230086010BD242400405D
:101040001A000020FEE7704770B50F21C4780278BF
:1010500001234FF0E026E4B1124C246804F4E0646C
:10106000C4F5E064C4F30724C4F10405E140447806
:10107000AC4085780D4025430B4C29011155007873
:1010800000F01F018B40400906EB8000C0F80031E2
:1010900070BD02F01F008340500906EB8000C0F8CD
:1010A000803170BD0CED00E000E400E002490A6808
:1010B00042EA800008607047007000400A4B1A68DE
:1010C00022F0030202431A600848026842F0040258
:1010D0000260012905D020BF016821F004010160F0
:1010E000704730BFF8E700000070004010ED00E0EE
:1010F000034A0146002052680A4200D0012070478E
:1011000000700040014908627047000000000E4274
:10111000044A116821F4C051014321F00C00106011
:10112000704700000070004070470000044A00292A
:10113000116801D0014300E0814311607047000055
:101140001C380240044A0029116801D0014300E024
:10115000814311607047000024380240044A00298E
:10116000116801D0014300E0814311607047000025
:101170002038024010B5012000F092F8212000F044
:1011800073F80028FAD0012000F0C8F84FF440406E
:1011900000F094F8002000F07BF8312000F064F8B3
:1011A00000B1FEE701210548FFF7CCFFBDE8104084
:1011B000012140F20120FFF7D1BF00000002001022
:1011C000254910B50A68A1F1040412F00C034FF48C
:1011D000004205D0042B09D0082B09D00C2B09D0D4
:1011E0002368C3F342335B1C9A4018E01B4A16E0A5
:1011F0001B4A14E00A680B6802F47012194C03F4DD
:10120000400304EB92421278012404EB93530C68E0
:1012100014F4803F1ED0124C6243B2FBF3F2026022
:101220000A68104B02F0F002120909339C5C026854
:10123000E24042600C6804F4E064240A1C5D22FA77
:1012400004F48460096801F46051C90A595CCA4019
:10125000C26010BD014CDFE7083802400024F400F2
:1012600000127A0000000020014600204A09012AED
:1012700009D0064A126801F01F0101238B40134276
:1012800000D001207047014A343AF3E73438024075
:10129000024900220A7008707047000002380240BC
:1012A00001490860704700000000474202490022DF
:1012B0000A7008707047000035380240034A116810
:1012C00021F460410143116070470000043802407E
:1012D0000149086070470000D8064742C0F3014149
:1012E000032907D1094A116821F0C04300F0C04129
:1012F00019431160054934310A6822F440320A600A
:101300000A6800F4403002430A6070470038024027
:101310000149086070470000DC064742034A116833
:1013200021F00301014311607047000008380240BA
:10133000C0F30F1040F08000C1430348026802F080
:1013400080021143016070470C28004010B5012055
:10135000FFF7D8FE0120FFF7DBFF0020FFF7D8FFE3
:101360000120FFF7A3FF4920FFF77EFF0028FAD0F6
:101370000120FFF7ADFFBDE810404FF48030FFF7CC
:10138000ADBF00000D4A10B51268002102F0040341
:101390000A4A383A1268840C20FA04F4024003EA3C
:1013A000D4331A43064B1B6803EA101003D0000421
:1013B000000C00D00121084610BD0000402800406C
:1013C0000C28004030B50E4DCA222A6053222A60F4
:1013D0000B4B0B4A1C3B1C32002920F004041968FB
:1013E00000F0040004D0214319601168014303E0B8
:1013F000A1431960116881431160FF20286030BD4E
:10140000242800400549CA220A6053220A60034A80
:10141000103A1060FF200860704700002428004048
:1014200010B54FF480442046FFF7ACFF002807D0EA
:101430002046FFF77DFFA001BDE81040FFF79CB8F4
:1014400010BD00000F4A10B50020CA2111605321C1
:1014500011600C4918390B6823F0A0030B60CC1302
:101460000B68401C03F02003A04201D0002BF7D0F2
:101470000868800601D5012000E00020FF211160EE
:1014800010BD000024280040084ACA2111605321E1
:10149000116006491C390B6823F007030B600B68C9
:1014A00003430B60FF2010607047000024280040B9
:1014B000134B10B50021CA221A6053221A60104A39
:1014C0001C3A0028106803D040F48060106012E0DD
:1014D00020F4806010600A4A183A54141068491CBD
:1014E00000F00400A14201D00028F7D010684007A6
:1014F00001D4002000E00120FF21196010BD000090
:10150000242800407047000010B58A0721F003042A
:101510000649130F21440F228C689A4094438C6033
:101520008A68984002438A6010BD000000000140B4
:101530001D48016841F001010160016811F0020FCE
:10154000FBD0006880072DD51848016821F0010103
:101550000160016821F002010160016821F00401CD
:10156000016011482430016841F080510160C114CC
:101570000F4801604168C906FCD40B480830016877
:1015800001600168016001680160016821F00301E8
:101590000160016841F0010101600168C1F381014E
:1015A0000129FAD17047000000380240003C024097
:1015B0000070004000F02AB8104810B5016841F4EE
:1015C000807101600D4908310A680D4B1A400A60AC
:1015D00002680C4B1A400260026822F4802202600A
:1015E000086820F47D000860091D00200860FFF7EE
:1015F0009FFF05494FF00060086010BD00380240B1
:101600000CC0FF88FEFFFEEE08ED00E00348816994
:10161000002902D08169491E816170471C000020A9
:10162000FEE700000FB4084B10B504A902AA039806
:1016300000F01CF8044602A9002000F0C1F8204682
:1016400010BC5DF814FB0000C117000802E008C8D8
:10165000121F08C1002AFAD170477047002001E02C
:1016600001C1121F002AFBD1704700002DE9FF4F76
:1016700089B09A460446002597E0252833D10027F3
:10168000641C4E49B84601222378203B02FA03F03D
:10169000084202D00743641CF6E720782E2819D1AF
:1016A00014F8010F47F004072A280ED06FF02F021C
:1016B0002078A0F1300109290CD808EB880102EB51
:1016C000410100EB0108641CF2E70A98641C50F821
:1016D000048B0A90207800286BD0642808D06928F1
:1016E00006D0752820D052460B9990476D1C5BE0C0
:1016F0000A994FF00A0901C90A91002804DAC0F1D9
:1017000000004FF02D0102E0390504D52B218DF8A2
:101710002010012103E0F90704D02021F7E78B46D0
:1017200008AE0EE00021FAE70A994FF00A0901C954
:101730000A91F7E74946FEF711FD01F1300106F87D
:10174000011D0028F6D1ADEB060000F12009780755
:1017500001D44FF00108C84502DDA8EB090000E004
:1017600000208046002706E008A85246C05D0B997D
:1017700090476D1C7F1C5F45F6DB04E0302052462D
:101780000B9990476D1CB8F10001A8F10108F5DC38
:1017900005E016F8010B52460B9990476D1CB9F104
:1017A0000001A9F10109F4DC641C207800287FF411
:1017B00064AF0DB02846BDE8F08F00000928010095
:1017C0000A68531C0B6010707047000070B501214F
:1017D0004802FFF7C3FC01210806FFF7A7FC164CDF
:1017E00001212046FEF7E2FC40212046FEF7FCFCEA
:1017F0000028F9D0114D2846FEF708FE104928466A
:10180000FEF77EFE01212846FEF7F4FD01220221AB
:101810002846FEF76DFE00212046FEF7DBFC012185
:101820002046FEF7D7FC0749002088702046BDE817
:101830007040FEF773BD00000024014008600240C4
:10184000580000201C0000201CB501213F20FFF79C
:101850006DFC4FF6FF70009003208DF8050000210D
:101860008DF807108DF8040069460F48FEF7EEFE6C
:1018700069460E48FEF7EAFE69460D48FEF7E6FEA9
:1018800069460C48FEF7E2FE69460B48FEF7DEFEAD
:1018900049F6FF70009069460848FEF7D7FE002120
:1018A0003F20FFF743FC1CBD00040240000802403B
:1018B000000C0240001002400014024000000240F0
:1018C00070B501214802FFF749FC0120FEF738FD01
:1018D00023494FF4806088808888421E8A800028CF
:1018E000FAD11F494FF40030083108600846FEF76E
:1018F00067FC1C48FEF717FD1A4800210122016011
:1019000002714171C160016114210175164D0146DA
:101910002846FEF771FC0124E2B207231021284675
:10192000FEF790FC641C102CF6D9112207231146F7
:101930002846FEF787FC0723122211212846FEF7CE
:1019400081FC0723132211212846FEF77BFC284641
:10195000BDE87040072314221121FEF773BC00007C
:101960001C000020400000200024014038B5012167
:101970000806FFF7DBFB194D2846FEF747FD184820
:10198000FEF7DBFD164917480024086001F12C0022
:10199000C1E901041420C1E903048020486140002A
:1019A00088618000C1E90704C000C1E90904284634
:1019B000FEF7A6FD012202212846FEF799FD0B2025
:1019C0008DF800008DF801408DF8024001208DF85F
:1019D00003006846FFF738FB38BD0000086002408E
:1019E0005800002058240140FEB54FF480152C46C5
:1019F0002846FEF7C1FD009400248DF8044008201D
:101A00008DF8050001268DF806606846FEF7BAFDE0
:101A100003208DF808008DF809408DF80A408DF8F4
:101A20000B6002A8FFF710FB1748016841F00401A2
:101A3000016001210807FFF785FB0120FFF762FB2A
:101A40000120FFF733FC4920FFF70EFC0028FAD0F5
:101A50004FF48030FFF742FC0120FFF739FCFFF71D
:101A6000F1FC0420FFF710FD0120FFF7CBFC4FF441
:101A700080442046FFF75CFC2846FEF77DFD0121EF
:101A80002046FFF79FFCFEBD0070004010B50446E5
:101A9000FEF794FCA0F58061273901D1064805E0E6
:101AA000A0F58061163906D10348803801682160AD
:101AB0004068606010BDFEE7F800F81F30B50123F4
:101AC00011E000BF30F813401A4602E020F812502F
:101AD000521E2AB100EB420535F8025CA542F5D84A
:101AE00020F812405B1C8B42ECD330BD30B501EBCB
:101AF0004102002394088A0804E000BF30F8125025
:101B0000521C2B44A242F9D34808B3FBF0F030BD7D
:101B1000FFF730FBFFF71AFC4FF40060FFF7F8FA0D
:101B20001020FFF7E5FA0028FAD101210720FEF77F
:101B300039FC3E48FFF744FB3C484FF4FA7100255E
:101B400040684FF0E024B0FBF1F0401EB0F1807F20
:101B500006D260613649F0200870A5610720206137
:101B6000FEF7DEFDFEF7E6FEFEF7BCFF4B2201218D
:101B700030A0FEF7EBFF206920F00300206100F0A9
:101B8000D9F8364E364C01280DD000F0C3F80128A4
:101B90000ED004F11C004FF42A71418040F26231F2
:101BA000C18000F0D3F83068E0617068206203E023
:101BB0002B481C30FFF76AFFFFF716FFFFF7D6FE32
:101BC000FFF77EFE5FF00106FFF700FE30BF00F07A
:101BD00051F800F069F8E07830B1E570207808B18C
:101BE00025701FE0267001E02078D8B122691DA180
:101BF0000E481438FFF716FDFEF788FE0B48143820
:101C0000FEF756FF0120FFF753FC0120FFF74EFAC5
:101C100001210846FFF752FAFFF7ACFA0020FFF760
:101C200047FCD1E711A16269E2E70000C000002093
:101C300023ED00E02020202A2A2054454D50455213
:101C400041545552452053454E534F52204558411B
:101C50004D504C45202A2A20202020000000080852
:101C60001C0000203E20256400000000256420B0F8
:101C70004300000010B501210948FEF7BBFB00211D
:101C80000848FEF793FA00214FF40070FFF766FA58
:101C9000BDE8104000214FF08070FFF747BA000008
:101CA000086002400024014030B500241021114892
:101CB000FFF704FF10210F48FFF718FF0E4A0D4BE6
:101CC0001021106133F81150491C2C441429F9D308
:101CD000A108D16008491C314B88C988C01A00EBA3
:101CE000001000EB8000C91A90FBF1F01930506130
:101CF00030BD0000840000201C00002001490120AC
:101D0000887070471C00002001490120C87070478E
:101D10001C0000201CB500246846FFF7B7FEBDF884
:101D20000600BDF80210401A322800DD01242046CA
:101D30001CBD000004490020CA884988511A322974
:101D400000DD0120704700000000080870B504465F
:101D5000FEF716FB40F60270FEF74CFC618809485E
:101D60000904FEF7FCFA084D68706878042800D072
:101D7000FEE70448E188001D0904FEF7F0FA6870E8
:101D800070BD0000000008081C00002000FE146761
:101D9000001D1447009D009C003F00FA14000053F2
:101DA00041980019485A095A005F00FC015F01FC84
:101DB00000AF1404005BC018815AC9005800C00568
:101DC000005F004200F5006700EA00AF00BF004678
:101DD00000FF00EFF41D000800000020400000009C
:101DE0004C160008341E000840000020900400003B
:101DF0005C160008030406080C10182030000000D0
:101E000000010203040102030406070809000000A0
:101E100000040000000000000000000000000000BE
:101E200000000000000000000000000000000000B2
:041E300000000000AE
:0400000508000125C9
:00000001FF
